{
  "_format": "hh-sol-artifact-1",
  "contractName": "Kalaha",
  "sourceName": "contracts/Kalaha.sol",
  "abi": [
    {
      "inputs": [
        {
          "internalType": "address",
          "name": "_kalahVerifier",
          "type": "address"
        }
      ],
      "stateMutability": "nonpayable",
      "type": "constructor"
    },
    {
      "anonymous": false,
      "inputs": [
        {
          "indexed": false,
          "internalType": "uint256",
          "name": "_game",
          "type": "uint256"
        },
        {
          "indexed": false,
          "internalType": "address",
          "name": "_by",
          "type": "address"
        }
      ],
      "name": "Join",
      "type": "event"
    },
    {
      "anonymous": false,
      "inputs": [
        {
          "indexed": false,
          "internalType": "uint256",
          "name": "_game",
          "type": "uint256"
        },
        {
          "indexed": false,
          "internalType": "uint8",
          "name": "x",
          "type": "uint8"
        },
        {
          "indexed": false,
          "internalType": "address",
          "name": "_by",
          "type": "address"
        }
      ],
      "name": "Move",
      "type": "event"
    },
    {
      "anonymous": false,
      "inputs": [
        {
          "indexed": false,
          "internalType": "uint256",
          "name": "_game",
          "type": "uint256"
        },
        {
          "indexed": false,
          "internalType": "address",
          "name": "_by",
          "type": "address"
        }
      ],
      "name": "NewGame",
      "type": "event"
    },
    {
      "anonymous": false,
      "inputs": [
        {
          "indexed": false,
          "internalType": "address",
          "name": "_by",
          "type": "address"
        }
      ],
      "name": "NotVerified",
      "type": "event"
    },
    {
      "anonymous": false,
      "inputs": [
        {
          "indexed": false,
          "internalType": "uint256",
          "name": "_game",
          "type": "uint256"
        },
        {
          "indexed": false,
          "internalType": "address",
          "name": "_by",
          "type": "address"
        }
      ],
      "name": "Start",
      "type": "event"
    },
    {
      "anonymous": false,
      "inputs": [
        {
          "indexed": false,
          "internalType": "address",
          "name": "_by",
          "type": "address"
        }
      ],
      "name": "Verified",
      "type": "event"
    },
    {
      "anonymous": false,
      "inputs": [
        {
          "indexed": false,
          "internalType": "uint256",
          "name": "_game",
          "type": "uint256"
        },
        {
          "indexed": false,
          "internalType": "address",
          "name": "_winner",
          "type": "address"
        },
        {
          "indexed": false,
          "internalType": "address",
          "name": "_by",
          "type": "address"
        }
      ],
      "name": "Win",
      "type": "event"
    },
    {
      "inputs": [],
      "name": "gameID",
      "outputs": [
        {
          "internalType": "uint256",
          "name": "",
          "type": "uint256"
        }
      ],
      "stateMutability": "view",
      "type": "function"
    },
    {
      "inputs": [
        {
          "internalType": "address",
          "name": "_user",
          "type": "address"
        }
      ],
      "name": "isVerified",
      "outputs": [
        {
          "internalType": "bool",
          "name": "",
          "type": "bool"
        }
      ],
      "stateMutability": "view",
      "type": "function"
    },
    {
      "inputs": [
        {
          "internalType": "uint256",
          "name": "_game",
          "type": "uint256"
        }
      ],
      "name": "join",
      "outputs": [],
      "stateMutability": "nonpayable",
      "type": "function"
    },
    {
      "inputs": [
        {
          "internalType": "uint256",
          "name": "_game",
          "type": "uint256"
        },
        {
          "internalType": "uint8",
          "name": "x",
          "type": "uint8"
        }
      ],
      "name": "move",
      "outputs": [],
      "stateMutability": "nonpayable",
      "type": "function"
    },
    {
      "inputs": [],
      "name": "newGame",
      "outputs": [],
      "stateMutability": "nonpayable",
      "type": "function"
    },
    {
      "inputs": [
        {
          "internalType": "uint256",
          "name": "_game",
          "type": "uint256"
        }
      ],
      "name": "state",
      "outputs": [
        {
          "internalType": "address[2]",
          "name": "players",
          "type": "address[2]"
        },
        {
          "internalType": "uint8[14]",
          "name": "board",
          "type": "uint8[14]"
        },
        {
          "internalType": "uint8",
          "name": "nonce",
          "type": "uint8"
        },
        {
          "internalType": "address",
          "name": "winner",
          "type": "address"
        }
      ],
      "stateMutability": "view",
      "type": "function"
    },
    {
      "inputs": [
        {
          "internalType": "address",
          "name": "signal",
          "type": "address"
        },
        {
          "internalType": "uint256",
          "name": "root",
          "type": "uint256"
        },
        {
          "internalType": "uint256",
          "name": "nullifierHash",
          "type": "uint256"
        },
        {
          "internalType": "uint256[8]",
          "name": "proof",
          "type": "uint256[8]"
        }
      ],
      "name": "verify",
      "outputs": [],
      "stateMutability": "nonpayable",
      "type": "function"
    }
  ],
  "bytecode": "0x608060405234801561001057600080fd5b50604051610f88380380610f8883398101604081905261002f91610054565b600380546001600160a01b0319166001600160a01b0392909216919091179055610084565b60006020828403121561006657600080fd5b81516001600160a01b038116811461007d57600080fd5b9392505050565b610ef5806100936000396000f3fe608060405234801561001057600080fd5b506004361061007d5760003560e01c80633e4f49e61161005b5780633e4f49e6146100bd5780637d03f5f3146100e9578063b9209e33146100f1578063c7dd4b4f1461012d57600080fd5b8063049878f3146100825780631e6ab533146100975780632d3e0851146100aa575b600080fd5b610095610090366004610c40565b610144565b005b6100956100a5366004610c75565b610265565b6100956100b8366004610cc3565b61038e565b6100d06100cb366004610c40565b610981565b6040516100e09493929190610cf9565b60405180910390f35b610095610a53565b61011d6100ff366004610d7e565b6001600160a01b031660009081526002602052604090205460ff1690565b60405190151581526020016100e0565b61013660005481565b6040519081526020016100e0565b60008181526001602052604090205481906001600160a01b03161580159061018357506000818152600160205260409020546001600160a01b03163314155b80156101a757506000818152600160208190526040822001546001600160a01b0316145b6101f85760405162461bcd60e51b815260206004820152600e60248201527f496e76616c69642067616d65494400000000000000000000000000000000000060448201526064015b60405180910390fd5b600082815260016020818152604092839020909101805473ffffffffffffffffffffffffffffffffffffffff1916339081179091558251858152918201527f2da5c788c7d6057f6fb69078319d8082cfdae75253679e8d00c4c9baafaca9f6910160405180910390a15050565b6003546040517fe9b705530000000000000000000000000000000000000000000000000000000081526000916001600160a01b03169063e9b70553906102b5908890889088908890600401610db6565b6020604051808303816000875af11580156102d4573d6000803e3d6000fd5b505050506040513d601f19601f820116820180604052508101906102f89190610de7565b905080156103535733600081815260026020908152604091829020805460ff1916600117905590519182527f6a6455914f452787eb3985452aceedc1000fb545e394eb3b370e3d08958e0a5b910160405180910390a1610387565b6040513381527fb12c8f9186e31202c7c765e500d829e58c3f7c2ebc3b7d21e4cd8542b2a314429060200160405180910390a15b5050505050565b6000828152600160205260408120600301548391906103b29060029060ff16610e09565b60ff16156103db57600082815260016020819052604090912001546001600160a01b03166103f4565b6000828152600160205260409020546001600160a01b03165b9050336001600160a01b0382161461044e5760405162461bcd60e51b815260206004820152600d60248201527f4e6f7420796f7572207475726e0000000000000000000000000000000000000060448201526064016101ef565b600084815260016020526040902060038101547f67a9b10c2cee424401caf375f753c715199b6f9542050170b26448a55744ad6490869086906104969060029060ff16610e09565b60ff16156104b15783600101546001600160a01b03166104bd565b83546001600160a01b03165b6040805193845260ff90921660208401526001600160a01b03169082015260600160405180910390a1600381015461010090046001600160a01b0316156105465760405162461bcd60e51b815260206004820152600960248201527f47616d65206f766572000000000000000000000000000000000000000000000060448201526064016101ef565b60068460ff16106105995760405162461bcd60e51b815260206004820152601c60248201527f496e76616c6964206d6f76652c2078206f7574206f662072616e67650000000060448201526064016101ef565b60038101546000906105b09060029060ff16610e09565b60ff166001146105c15760006105c4565b60075b90506000600283016105d68388610e4f565b60ff16600e81106105e9576105e9610da0565b602081049091015460ff601f9092166101000a900416905060008190036106525760405162461bcd60e51b815260206004820152601960248201527f496e76616c6964206d6f76652c20656d70747920686f7573650000000000000060448201526064016101ef565b6000600284016106628489610e4f565b60ff16600e811061067557610675610da0565b602091828204019190066101000a81548160ff021916908360ff1602179055506000600190505b8160ff168160ff1611610738576000600e826106b8868b610e4f565b6106c29190610e4f565b6106cc9190610e09565b9050846002018160ff16600e81106106e6576106e6610da0565b6020918282040191900681819054906101000a900460ff168092919061070b90610e6e565b91906101000a81548160ff021916908360ff1602179055505050808061073090610e6e565b91505061069c565b506001806000610749856007610e8d565b90505b61075785600d610e8d565b60ff168160ff16101561084e57828015610800575060038601546107809060029060ff16610e09565b60ff16156107c65760028601610797826007610e4f565b60ff16600e81106107aa576107aa610da0565b602081049091015460ff601f9092166101000a90041615610800565b600286016107d5600783610e8d565b60ff16600e81106107e8576107e8610da0565b602081049091015460ff601f9092166101000a900416155b925081801561083a5750856002018160ff16600e811061082257610822610da0565b602081049091015460ff601f9092166101000a900416155b91508061084681610e6e565b91505061074c565b5061085a846006610e4f565b60ff16600e8561086a868c610e4f565b6108749190610e4f565b61087e9190610e09565b60ff1614158061088b5750815b156109765760038501805460ff169060006108a583610e6e565b91906101000a81548160ff021916908360ff16021790555050801561097657600385015460009086906108dd9060029060ff16610e09565b60ff16600281106108f0576108f0610da0565b01546003870180547fffffffffffffffffffffff0000000000000000000000000000000000000000ff166101006001600160a01b03909316928302179055604080518c81526020810183905233918101919091529091507f4523175dde7638226970f0be3985d41f2bdd61981dc3e4a74066ae8777b1876e9060600160405180910390a1505b505050505050505050565b610989610b5b565b610991610b79565b6000838152600160205260408082206003810154825180840193849052849360028085019360ff8116936101009091046001600160a01b0316929091869182845b81546001600160a01b031681526001909101906020018083116109d2575050604080516101c0810191829052949850879350600e92509050826000855b825461010083900a900460ff16815260206001928301818104948501949093039092029101808411610a0f5790505050505050925093509350935093509193509193565b600080549080610a6283610ea6565b9091555050600080548152600160208181526040808420805473ffffffffffffffffffffffffffffffffffffffff19163317905580516101c0810182526004808252818401819052818301819052606082018190526080820181905260a0820181905260c0820186905260e0820181905261010082018190526101208201819052610140820181905261016082018190526101808201526101a081018590528454855292909152909120610b1d91600290910190600e610b98565b50600054604080519182523360208301527fb4ab36f4d2fee8698466065c4ee831b4748994cdd8de1c10a834a1d9b9452337910160405180910390a1565b60405180604001604052806002906020820280368337509192915050565b604051806101c00160405280600e906020820280368337509192915050565b600183019183908215610c1b5791602002820160005b83821115610bec57835183826101000a81548160ff021916908360ff1602179055509260200192600101602081600001049283019260010302610bae565b8015610c195782816101000a81549060ff0219169055600101602081600001049283019260010302610bec565b505b50610c27929150610c2b565b5090565b5b80821115610c275760008155600101610c2c565b600060208284031215610c5257600080fd5b5035919050565b80356001600160a01b0381168114610c7057600080fd5b919050565b600080600080610160808688031215610c8d57600080fd5b610c9686610c59565b94506020860135935060408601359250868187011115610cb557600080fd5b509295919450926060019150565b60008060408385031215610cd657600080fd5b82359150602083013560ff81168114610cee57600080fd5b809150509250929050565b6102408101818660005b6002811015610d2b5781516001600160a01b0316835260209283019290910190600101610d03565b505050604082018560005b600e811015610d5857815160ff16835260209283019290910190600101610d36565b50505060ff84166102008301526001600160a01b03831661022083015295945050505050565b600060208284031215610d9057600080fd5b610d9982610c59565b9392505050565b634e487b7160e01b600052603260045260246000fd5b6001600160a01b03851681526020810184905260408101839052610160810161010083606084013795945050505050565b600060208284031215610df957600080fd5b81518015158114610d9957600080fd5b600060ff831680610e2a57634e487b7160e01b600052601260045260246000fd5b8060ff84160691505092915050565b634e487b7160e01b600052601160045260246000fd5b60ff8181168382160190811115610e6857610e68610e39565b92915050565b600060ff821660ff8103610e8457610e84610e39565b60010192915050565b60ff8281168282160390811115610e6857610e68610e39565b600060018201610eb857610eb8610e39565b506001019056fea26469706673582212208445a443f328bf7dfe4d3fa6a842e857d1d0079aefb249ae812ea7e5c173aa3d64736f6c63430008130033",
  "linkReferences": {},
  "deployedLinkReferences": {},
  "contractAddress": "0xc054924F7C18b0b0E64712df650283e1919BA8DB"
}