{
	"_format": "hh-sol-artifact-1",
	"contractName": "Kalaha",
	"sourceName": "contracts/Kalaha.sol",
	"abi": [
		{
			"anonymous": false,
			"inputs": [
				{
					"indexed": false,
					"internalType": "uint256",
					"name": "_game",
					"type": "uint256"
				},
				{
					"indexed": false,
					"internalType": "address",
					"name": "_by",
					"type": "address"
				}
			],
			"name": "Join",
			"type": "event"
		},
		{
			"anonymous": false,
			"inputs": [
				{
					"indexed": false,
					"internalType": "uint256",
					"name": "_game",
					"type": "uint256"
				},
				{
					"indexed": false,
					"internalType": "uint8",
					"name": "x",
					"type": "uint8"
				},
				{
					"indexed": false,
					"internalType": "address",
					"name": "_by",
					"type": "address"
				}
			],
			"name": "Move",
			"type": "event"
		},
		{
			"anonymous": false,
			"inputs": [
				{
					"indexed": false,
					"internalType": "uint256",
					"name": "_game",
					"type": "uint256"
				},
				{
					"indexed": false,
					"internalType": "address",
					"name": "_by",
					"type": "address"
				}
			],
			"name": "NewGame",
			"type": "event"
		},
		{
			"anonymous": false,
			"inputs": [
				{
					"indexed": false,
					"internalType": "uint256",
					"name": "_game",
					"type": "uint256"
				},
				{
					"indexed": false,
					"internalType": "address",
					"name": "_by",
					"type": "address"
				}
			],
			"name": "Start",
			"type": "event"
		},
		{
			"anonymous": false,
			"inputs": [
				{
					"indexed": false,
					"internalType": "uint256",
					"name": "_game",
					"type": "uint256"
				},
				{
					"indexed": false,
					"internalType": "address",
					"name": "_winner",
					"type": "address"
				},
				{
					"indexed": false,
					"internalType": "address",
					"name": "_by",
					"type": "address"
				}
			],
			"name": "Win",
			"type": "event"
		},
		{
			"inputs": [],
			"name": "gameID",
			"outputs": [
				{
					"internalType": "uint256",
					"name": "",
					"type": "uint256"
				}
			],
			"stateMutability": "view",
			"type": "function"
		},
		{
			"inputs": [
				{
					"internalType": "uint256",
					"name": "_game",
					"type": "uint256"
				}
			],
			"name": "join",
			"outputs": [],
			"stateMutability": "nonpayable",
			"type": "function"
		},
		{
			"inputs": [
				{
					"internalType": "uint256",
					"name": "_game",
					"type": "uint256"
				},
				{
					"internalType": "uint8",
					"name": "x",
					"type": "uint8"
				}
			],
			"name": "move",
			"outputs": [],
			"stateMutability": "nonpayable",
			"type": "function"
		},
		{
			"inputs": [],
			"name": "newGame",
			"outputs": [],
			"stateMutability": "nonpayable",
			"type": "function"
		},
		{
			"inputs": [
				{
					"internalType": "uint256",
					"name": "_game",
					"type": "uint256"
				}
			],
			"name": "state",
			"outputs": [
				{
					"internalType": "address[2]",
					"name": "players",
					"type": "address[2]"
				},
				{
					"internalType": "uint8[14]",
					"name": "board",
					"type": "uint8[14]"
				},
				{
					"internalType": "uint8",
					"name": "nonce",
					"type": "uint8"
				},
				{
					"internalType": "address",
					"name": "winner",
					"type": "address"
				}
			],
			"stateMutability": "view",
			"type": "function"
		}
	],
	"bytecode": "0x608060405234801561001057600080fd5b50610c89806100206000396000f3fe608060405234801561001057600080fd5b50600436106100675760003560e01c80633e4f49e6116100505780633e4f49e6146100945780637d03f5f3146100c0578063c7dd4b4f146100c857600080fd5b8063049878f31461006c5780632d3e085114610081575b600080fd5b61007f61007a366004610ab3565b6100df565b005b61007f61008f366004610acc565b610200565b6100a76100a2366004610ab3565b6107f4565b6040516100b79493929190610b02565b60405180910390f35b61007f6108c6565b6100d160005481565b6040519081526020016100b7565b60008181526001602052604090205481906001600160a01b03161580159061011e57506000818152600160205260409020546001600160a01b03163314155b801561014257506000818152600160208190526040822001546001600160a01b0316145b6101935760405162461bcd60e51b815260206004820152600e60248201527f496e76616c69642067616d65494400000000000000000000000000000000000060448201526064015b60405180910390fd5b600082815260016020818152604092839020909101805473ffffffffffffffffffffffffffffffffffffffff1916339081179091558251858152918201527f2da5c788c7d6057f6fb69078319d8082cfdae75253679e8d00c4c9baafaca9f6910160405180910390a15050565b6000828152600160205260408120600301548391906102249060029060ff16610b9d565b60ff161561024d57600082815260016020819052604090912001546001600160a01b0316610266565b6000828152600160205260409020546001600160a01b03165b9050336001600160a01b038216146102c05760405162461bcd60e51b815260206004820152600d60248201527f4e6f7420796f7572207475726e00000000000000000000000000000000000000604482015260640161018a565b600084815260016020526040902060038101547f67a9b10c2cee424401caf375f753c715199b6f9542050170b26448a55744ad6490869086906103089060029060ff16610b9d565b60ff16156103235783600101546001600160a01b031661032f565b83546001600160a01b03165b6040805193845260ff90921660208401526001600160a01b03169082015260600160405180910390a1600381015461010090046001600160a01b0316156103b85760405162461bcd60e51b815260206004820152600960248201527f47616d65206f7665720000000000000000000000000000000000000000000000604482015260640161018a565b60068460ff161061040b5760405162461bcd60e51b815260206004820152601c60248201527f496e76616c6964206d6f76652c2078206f7574206f662072616e676500000000604482015260640161018a565b60038101546000906104229060029060ff16610b9d565b60ff16600114610433576000610436565b60075b90506000600283016104488388610be3565b60ff16600e811061045b5761045b610b87565b602081049091015460ff601f9092166101000a900416905060008190036104c45760405162461bcd60e51b815260206004820152601960248201527f496e76616c6964206d6f76652c20656d70747920686f75736500000000000000604482015260640161018a565b6000600284016104d48489610be3565b60ff16600e81106104e7576104e7610b87565b602091828204019190066101000a81548160ff021916908360ff1602179055506000600190505b8160ff168160ff16116105aa576000600e8261052a868b610be3565b6105349190610be3565b61053e9190610b9d565b9050846002018160ff16600e811061055857610558610b87565b6020918282040191900681819054906101000a900460ff168092919061057d90610c02565b91906101000a81548160ff021916908360ff160217905550505080806105a290610c02565b91505061050e565b5060018060006105bb856007610c21565b90505b6105c985600d610c21565b60ff168160ff1610156106c057828015610672575060038601546105f29060029060ff16610b9d565b60ff16156106385760028601610609826007610be3565b60ff16600e811061061c5761061c610b87565b602081049091015460ff601f9092166101000a90041615610672565b60028601610647600783610c21565b60ff16600e811061065a5761065a610b87565b602081049091015460ff601f9092166101000a900416155b92508180156106ac5750856002018160ff16600e811061069457610694610b87565b602081049091015460ff601f9092166101000a900416155b9150806106b881610c02565b9150506105be565b506106cc846006610be3565b60ff16600e856106dc868c610be3565b6106e69190610be3565b6106f09190610b9d565b60ff161415806106fd5750815b156107315760038501805460ff1690600061071783610c02565b91906101000a81548160ff021916908360ff160217905550505b80156107e957600385015460009086906107509060029060ff16610b9d565b60ff166002811061076357610763610b87565b01546003870180547fffffffffffffffffffffff0000000000000000000000000000000000000000ff166101006001600160a01b03909316928302179055604080518c81526020810183905233918101919091529091507f4523175dde7638226970f0be3985d41f2bdd61981dc3e4a74066ae8777b1876e9060600160405180910390a1505b505050505050505050565b6107fc6109ce565b6108046109ec565b6000838152600160205260408082206003810154825180840193849052849360028085019360ff8116936101009091046001600160a01b0316929091869182845b81546001600160a01b03168152600190910190602001808311610845575050604080516101c0810191829052949850879350600e92509050826000855b825461010083900a900460ff168152602060019283018181049485019490930390920291018084116108825790505050505050925093509350935093509193509193565b6000805490806108d583610c3a565b9091555050600080548152600160208181526040808420805473ffffffffffffffffffffffffffffffffffffffff19163317905580516101c0810182526004808252818401819052818301819052606082018190526080820181905260a0820181905260c0820186905260e0820181905261010082018190526101208201819052610140820181905261016082018190526101808201526101a08101859052845485529290915290912061099091600290910190600e610a0b565b50600054604080519182523360208301527fb4ab36f4d2fee8698466065c4ee831b4748994cdd8de1c10a834a1d9b9452337910160405180910390a1565b60405180604001604052806002906020820280368337509192915050565b604051806101c00160405280600e906020820280368337509192915050565b600183019183908215610a8e5791602002820160005b83821115610a5f57835183826101000a81548160ff021916908360ff1602179055509260200192600101602081600001049283019260010302610a21565b8015610a8c5782816101000a81549060ff0219169055600101602081600001049283019260010302610a5f565b505b50610a9a929150610a9e565b5090565b5b80821115610a9a5760008155600101610a9f565b600060208284031215610ac557600080fd5b5035919050565b60008060408385031215610adf57600080fd5b82359150602083013560ff81168114610af757600080fd5b809150509250929050565b6102408101818660005b6002811015610b345781516001600160a01b0316835260209283019290910190600101610b0c565b505050604082018560005b600e811015610b6157815160ff16835260209283019290910190600101610b3f565b50505060ff84166102008301526001600160a01b03831661022083015295945050505050565b634e487b7160e01b600052603260045260246000fd5b600060ff831680610bbe57634e487b7160e01b600052601260045260246000fd5b8060ff84160691505092915050565b634e487b7160e01b600052601160045260246000fd5b60ff8181168382160190811115610bfc57610bfc610bcd565b92915050565b600060ff821660ff8103610c1857610c18610bcd565b60010192915050565b60ff8281168282160390811115610bfc57610bfc610bcd565b600060018201610c4c57610c4c610bcd565b506001019056fea26469706673582212203cd4bd7195ac28754650b1d550e14b05410cf1da1eca55ee42b11f4e9fee744364736f6c63430008130033",
	"linkReferences": {},
	"deployedLinkReferences": {},
	"contractAddress": "0x4c0086Fc0C0750407520e23CB4BD7B072070FAEd"
}