{
  "_format": "hh-sol-artifact-1",
  "contractName": "Kalaha",
  "sourceName": "contracts/Kalaha.sol",
  "abi": [
    {
      "inputs": [
        {
          "internalType": "address",
          "name": "_kalahVerifier",
          "type": "address"
        }
      ],
      "stateMutability": "nonpayable",
      "type": "constructor"
    },
    {
      "anonymous": false,
      "inputs": [
        {
          "indexed": false,
          "internalType": "uint256",
          "name": "_game",
          "type": "uint256"
        },
        {
          "indexed": false,
          "internalType": "address",
          "name": "_by",
          "type": "address"
        }
      ],
      "name": "Join",
      "type": "event"
    },
    {
      "anonymous": false,
      "inputs": [
        {
          "indexed": false,
          "internalType": "uint256",
          "name": "_game",
          "type": "uint256"
        },
        {
          "indexed": false,
          "internalType": "uint8",
          "name": "x",
          "type": "uint8"
        },
        {
          "indexed": false,
          "internalType": "address",
          "name": "_by",
          "type": "address"
        }
      ],
      "name": "Move",
      "type": "event"
    },
    {
      "anonymous": false,
      "inputs": [
        {
          "indexed": false,
          "internalType": "uint256",
          "name": "_game",
          "type": "uint256"
        },
        {
          "indexed": false,
          "internalType": "address",
          "name": "_by",
          "type": "address"
        }
      ],
      "name": "NewGame",
      "type": "event"
    },
    {
      "anonymous": false,
      "inputs": [
        {
          "indexed": false,
          "internalType": "address",
          "name": "_by",
          "type": "address"
        }
      ],
      "name": "NotVerified",
      "type": "event"
    },
    {
      "anonymous": false,
      "inputs": [
        {
          "indexed": false,
          "internalType": "uint256",
          "name": "_game",
          "type": "uint256"
        },
        {
          "indexed": false,
          "internalType": "address",
          "name": "_by",
          "type": "address"
        }
      ],
      "name": "Start",
      "type": "event"
    },
    {
      "anonymous": false,
      "inputs": [
        {
          "indexed": false,
          "internalType": "address",
          "name": "_by",
          "type": "address"
        }
      ],
      "name": "Verified",
      "type": "event"
    },
    {
      "anonymous": false,
      "inputs": [
        {
          "indexed": false,
          "internalType": "uint256",
          "name": "_game",
          "type": "uint256"
        },
        {
          "indexed": false,
          "internalType": "address",
          "name": "_winner",
          "type": "address"
        },
        {
          "indexed": false,
          "internalType": "address",
          "name": "_by",
          "type": "address"
        }
      ],
      "name": "Win",
      "type": "event"
    },
    {
      "inputs": [],
      "name": "gameID",
      "outputs": [
        {
          "internalType": "uint256",
          "name": "",
          "type": "uint256"
        }
      ],
      "stateMutability": "view",
      "type": "function"
    },
    {
      "inputs": [
        {
          "internalType": "address",
          "name": "_user",
          "type": "address"
        }
      ],
      "name": "isVerified",
      "outputs": [
        {
          "internalType": "bool",
          "name": "",
          "type": "bool"
        }
      ],
      "stateMutability": "view",
      "type": "function"
    },
    {
      "inputs": [
        {
          "internalType": "uint256",
          "name": "_game",
          "type": "uint256"
        }
      ],
      "name": "join",
      "outputs": [],
      "stateMutability": "nonpayable",
      "type": "function"
    },
    {
      "inputs": [
        {
          "internalType": "uint256",
          "name": "_game",
          "type": "uint256"
        },
        {
          "internalType": "uint8",
          "name": "x",
          "type": "uint8"
        }
      ],
      "name": "move",
      "outputs": [],
      "stateMutability": "nonpayable",
      "type": "function"
    },
    {
      "inputs": [
        {
          "internalType": "bool",
          "name": "_verifiedOnly",
          "type": "bool"
        }
      ],
      "name": "newGame",
      "outputs": [
        {
          "internalType": "uint256",
          "name": "",
          "type": "uint256"
        }
      ],
      "stateMutability": "nonpayable",
      "type": "function"
    },
    {
      "inputs": [
        {
          "internalType": "uint256",
          "name": "_game",
          "type": "uint256"
        }
      ],
      "name": "state",
      "outputs": [
        {
          "internalType": "address[2]",
          "name": "players",
          "type": "address[2]"
        },
        {
          "internalType": "uint8[14]",
          "name": "board",
          "type": "uint8[14]"
        },
        {
          "internalType": "uint8",
          "name": "nonce",
          "type": "uint8"
        },
        {
          "internalType": "address",
          "name": "winner",
          "type": "address"
        }
      ],
      "stateMutability": "view",
      "type": "function"
    },
    {
      "inputs": [
        {
          "internalType": "address",
          "name": "signal",
          "type": "address"
        },
        {
          "internalType": "uint256",
          "name": "root",
          "type": "uint256"
        },
        {
          "internalType": "uint256",
          "name": "nullifierHash",
          "type": "uint256"
        },
        {
          "internalType": "uint256[8]",
          "name": "proof",
          "type": "uint256[8]"
        }
      ],
      "name": "verify",
      "outputs": [],
      "stateMutability": "nonpayable",
      "type": "function"
    }
  ],
  "bytecode": "0x608060405234801561001057600080fd5b5060405161107a38038061107a83398101604081905261002f91610054565b600380546001600160a01b0319166001600160a01b0392909216919091179055610084565b60006020828403121561006657600080fd5b81516001600160a01b038116811461007d57600080fd5b9392505050565b610fe7806100936000396000f3fe608060405234801561001057600080fd5b506004361061007d5760003560e01c80632d3e08511161005b5780632d3e0851146100d05780633e4f49e6146100e3578063b9209e3314610106578063c7dd4b4f1461014257600080fd5b8063049878f3146100825780631e6ab533146100975780632b170aac146100aa575b600080fd5b610095610090366004610d09565b61014b565b005b6100956100a5366004610d3e565b6102ec565b6100bd6100b8366004610d9d565b610415565b6040519081526020015b60405180910390f35b6100956100de366004610dc1565b61055f565b6100f66100f1366004610d09565b610b52565b6040516100c79493929190610df7565b610132610114366004610e7c565b6001600160a01b031660009081526002602052604090205460ff1690565b60405190151581526020016100c7565b6100bd60005481565b60008181526001602052604090205481906001600160a01b03161580159061018a57506000818152600160205260409020546001600160a01b03163314155b80156101ae57506000818152600160208190526040822001546001600160a01b0316145b6101ff5760405162461bcd60e51b815260206004820152600e60248201527f496e76616c69642067616d65494400000000000000000000000000000000000060448201526064015b60405180910390fd5b600082815260016020526040902060030154600160a81b900460ff161561027f573360009081526002602052604090205460ff1661027f5760405162461bcd60e51b815260206004820152600c60248201527f4e6f74207665726966696564000000000000000000000000000000000000000060448201526064016101f6565b600082815260016020818152604092839020909101805473ffffffffffffffffffffffffffffffffffffffff1916339081179091558251858152918201527f2da5c788c7d6057f6fb69078319d8082cfdae75253679e8d00c4c9baafaca9f6910160405180910390a15050565b6003546040517fe9b705530000000000000000000000000000000000000000000000000000000081526000916001600160a01b03169063e9b705539061033c908890889088908890600401610ead565b6020604051808303816000875af115801561035b573d6000803e3d6000fd5b505050506040513d601f19601f8201168201806040525081019061037f9190610ede565b905080156103da5733600081815260026020908152604091829020805460ff1916600117905590519182527f6a6455914f452787eb3985452aceedc1000fb545e394eb3b370e3d08958e0a5b910160405180910390a161040e565b6040513381527fb12c8f9186e31202c7c765e500d829e58c3f7c2ebc3b7d21e4cd8542b2a314429060200160405180910390a15b5050505050565b60008054818061042483610f11565b90915550506000805481526001602081815260408084206003018054871515600160a81b027fffffffffffffffffffff00ffffffffffffffffffffffffffffffffffffffffff90911617905583548452808420805473ffffffffffffffffffffffffffffffffffffffff19163317905580516101c0810182526004808252818401819052818301819052606082018190526080820181905260a0820181905260c0820186905260e0820181905261010082018190526101208201819052610140820181905261016082018190526101808201526101a08101859052845485529290915290912061051b91600290910190600e610c24565b50600054604080519182523360208301527fb4ab36f4d2fee8698466065c4ee831b4748994cdd8de1c10a834a1d9b9452337910160405180910390a1505060005490565b6000828152600160205260408120600301548391906105839060029060ff16610f2a565b60ff16156105ac57600082815260016020819052604090912001546001600160a01b03166105c5565b6000828152600160205260409020546001600160a01b03165b9050336001600160a01b0382161461061f5760405162461bcd60e51b815260206004820152600d60248201527f4e6f7420796f7572207475726e0000000000000000000000000000000000000060448201526064016101f6565b600084815260016020526040902060038101547f67a9b10c2cee424401caf375f753c715199b6f9542050170b26448a55744ad6490869086906106679060029060ff16610f2a565b60ff16156106825783600101546001600160a01b031661068e565b83546001600160a01b03165b6040805193845260ff90921660208401526001600160a01b03169082015260600160405180910390a1600381015461010090046001600160a01b0316156107175760405162461bcd60e51b815260206004820152600960248201527f47616d65206f766572000000000000000000000000000000000000000000000060448201526064016101f6565b60068460ff161061076a5760405162461bcd60e51b815260206004820152601c60248201527f496e76616c6964206d6f76652c2078206f7574206f662072616e67650000000060448201526064016101f6565b60038101546000906107819060029060ff16610f2a565b60ff16600114610792576000610795565b60075b90506000600283016107a78388610f5a565b60ff16600e81106107ba576107ba610e97565b602081049091015460ff601f9092166101000a900416905060008190036108235760405162461bcd60e51b815260206004820152601960248201527f496e76616c6964206d6f76652c20656d70747920686f7573650000000000000060448201526064016101f6565b6000600284016108338489610f5a565b60ff16600e811061084657610846610e97565b602091828204019190066101000a81548160ff021916908360ff1602179055506000600190505b8160ff168160ff1611610909576000600e82610889868b610f5a565b6108939190610f5a565b61089d9190610f2a565b9050846002018160ff16600e81106108b7576108b7610e97565b6020918282040191900681819054906101000a900460ff16809291906108dc90610f79565b91906101000a81548160ff021916908360ff1602179055505050808061090190610f79565b91505061086d565b50600180600061091a856007610f98565b90505b61092885600d610f98565b60ff168160ff161015610a1f578280156109d1575060038601546109519060029060ff16610f2a565b60ff16156109975760028601610968826007610f5a565b60ff16600e811061097b5761097b610e97565b602081049091015460ff601f9092166101000a900416156109d1565b600286016109a6600783610f98565b60ff16600e81106109b9576109b9610e97565b602081049091015460ff601f9092166101000a900416155b9250818015610a0b5750856002018160ff16600e81106109f3576109f3610e97565b602081049091015460ff601f9092166101000a900416155b915080610a1781610f79565b91505061091d565b50610a2b846006610f5a565b60ff16600e85610a3b868c610f5a565b610a459190610f5a565b610a4f9190610f2a565b60ff16141580610a5c5750815b15610b475760038501805460ff16906000610a7683610f79565b91906101000a81548160ff021916908360ff160217905550508015610b475760038501546000908690610aae9060029060ff16610f2a565b60ff1660028110610ac157610ac1610e97565b01546003870180547fffffffffffffffffffffff0000000000000000000000000000000000000000ff166101006001600160a01b03909316928302179055604080518c81526020810183905233918101919091529091507f4523175dde7638226970f0be3985d41f2bdd61981dc3e4a74066ae8777b1876e9060600160405180910390a1505b505050505050505050565b610b5a610cb7565b610b62610cd5565b6000838152600160205260408082206003810154825180840193849052849360028085019360ff8116936101009091046001600160a01b0316929091869182845b81546001600160a01b03168152600190910190602001808311610ba3575050604080516101c0810191829052949850879350600e92509050826000855b825461010083900a900460ff16815260206001928301818104948501949093039092029101808411610be05790505050505050925093509350935093509193509193565b600183019183908215610ca75791602002820160005b83821115610c7857835183826101000a81548160ff021916908360ff1602179055509260200192600101602081600001049283019260010302610c3a565b8015610ca55782816101000a81549060ff0219169055600101602081600001049283019260010302610c78565b505b50610cb3929150610cf4565b5090565b60405180604001604052806002906020820280368337509192915050565b604051806101c00160405280600e906020820280368337509192915050565b5b80821115610cb35760008155600101610cf5565b600060208284031215610d1b57600080fd5b5035919050565b80356001600160a01b0381168114610d3957600080fd5b919050565b600080600080610160808688031215610d5657600080fd5b610d5f86610d22565b94506020860135935060408601359250868187011115610d7e57600080fd5b509295919450926060019150565b8015158114610d9a57600080fd5b50565b600060208284031215610daf57600080fd5b8135610dba81610d8c565b9392505050565b60008060408385031215610dd457600080fd5b82359150602083013560ff81168114610dec57600080fd5b809150509250929050565b6102408101818660005b6002811015610e295781516001600160a01b0316835260209283019290910190600101610e01565b505050604082018560005b600e811015610e5657815160ff16835260209283019290910190600101610e34565b50505060ff84166102008301526001600160a01b03831661022083015295945050505050565b600060208284031215610e8e57600080fd5b610dba82610d22565b634e487b7160e01b600052603260045260246000fd5b6001600160a01b03851681526020810184905260408101839052610160810161010083606084013795945050505050565b600060208284031215610ef057600080fd5b8151610dba81610d8c565b634e487b7160e01b600052601160045260246000fd5b600060018201610f2357610f23610efb565b5060010190565b600060ff831680610f4b57634e487b7160e01b600052601260045260246000fd5b8060ff84160691505092915050565b60ff8181168382160190811115610f7357610f73610efb565b92915050565b600060ff821660ff8103610f8f57610f8f610efb565b60010192915050565b60ff8281168282160390811115610f7357610f73610efb56fea264697066735822122063f55996f4d6d7dd3e920fd766ed84615b1bdbaaefda251c1ada165005a1104864736f6c63430008130033",
  "linkReferences": {},
  "deployedLinkReferences": {},
  "contractAddress": "0x00f63203AfeAcdF79510B1bFC744cD5628b1F816"
}