{
  "_format": "hh-sol-artifact-1",
  "contractName": "KalahVerifier",
  "sourceName": "contracts/KalahVerifier.sol",
  "abi": [
    {
      "inputs": [
        {
          "internalType": "contract IWorldID",
          "name": "_worldId",
          "type": "address"
        },
        {
          "internalType": "string",
          "name": "_appId",
          "type": "string"
        },
        {
          "internalType": "string",
          "name": "_actionId",
          "type": "string"
        }
      ],
      "stateMutability": "nonpayable",
      "type": "constructor"
    },
    {
      "inputs": [],
      "name": "InvalidNullifier",
      "type": "error"
    },
    {
      "inputs": [
        {
          "internalType": "address",
          "name": "signal",
          "type": "address"
        },
        {
          "internalType": "uint256",
          "name": "root",
          "type": "uint256"
        },
        {
          "internalType": "uint256",
          "name": "nullifierHash",
          "type": "uint256"
        },
        {
          "internalType": "uint256[8]",
          "name": "proof",
          "type": "uint256[8]"
        }
      ],
      "name": "verifyAndExecute",
      "outputs": [
        {
          "internalType": "bool",
          "name": "isVerified",
          "type": "bool"
        }
      ],
      "stateMutability": "nonpayable",
      "type": "function"
    }
  ],
  "bytecode": "0x60e0604052600160c05234801561001557600080fd5b5060405161058538038061058583398101604081905261003491610183565b6001600160a01b0383166080526040516100819061006f9061005a908590602001610205565b60408051601f1981840301815291905261008d565b8260405160200161005a929190610221565b60a05250610247915050565b60006008826040516020016100a29190610205565b60408051601f198184030181529190528051602090910120901c92915050565b634e487b7160e01b600052604160045260246000fd5b60005b838110156100f35781810151838201526020016100db565b50506000910152565b600082601f83011261010d57600080fd5b81516001600160401b0380821115610127576101276100c2565b604051601f8301601f19908116603f0116810190828211818310171561014f5761014f6100c2565b8160405283815286602085880101111561016857600080fd5b6101798460208301602089016100d8565b9695505050505050565b60008060006060848603121561019857600080fd5b83516001600160a01b03811681146101af57600080fd5b60208501519093506001600160401b03808211156101cc57600080fd5b6101d8878388016100fc565b935060408601519150808211156101ee57600080fd5b506101fb868287016100fc565b9150509250925092565b600082516102178184602087016100d8565b9190910192915050565b828152600082516102398160208501602087016100d8565b919091016020019392505050565b60805160a05160c051610311610274600039600060df015260006101410152600060a201526103116000f3fe608060405234801561001057600080fd5b506004361061002b5760003560e01c8063e9b7055314610030575b600080fd5b61004361003e36600461020b565b610057565b604051901515815260200160405180910390f35b60008281526020819052604081205460ff16156100a0576040517f5d904cb200000000000000000000000000000000000000000000000000000000815260040160405180910390fd5b7f000000000000000000000000000000000000000000000000000000000000000073ffffffffffffffffffffffffffffffffffffffff16633bc778e3857f000000000000000000000000000000000000000000000000000000000000000061013e8960405160200161012a919060609190911b6bffffffffffffffffffffffff1916815260140190565b6040516020818303038152906040526101d6565b877f0000000000000000000000000000000000000000000000000000000000000000886040518763ffffffff1660e01b815260040161018296959493929190610274565b60006040518083038186803b15801561019a57600080fd5b505afa1580156101ae573d6000803e3d6000fd5b5050506000938452505050602081905260409020805460ff1916600190811790915592915050565b60006008826040516020016101eb91906102ac565b60408051601f198184030181529190528051602090910120901c92915050565b60008060008061016080868803121561022357600080fd5b853573ffffffffffffffffffffffffffffffffffffffff8116811461024757600080fd5b9450602086013593506040860135925080860187101561026657600080fd5b509295919450926060019150565b60006101a0820190508782528660208301528560408301528460608301528360808301526101008360a0840137979650505050505050565b6000825160005b818110156102cd57602081860181015185830152016102b3565b50600092019182525091905056fea264697066735822122020775e5438627a1dc8559c4dc6b94e228d12fbb2563f1027b83c9ead86a1e52964736f6c63430008130033",
  "linkReferences": {},
  "deployedLinkReferences": {}
}